:020000040800F2
:10000000000002202168000875680008796800086F
:100010007D6800088168000885680008000000000D
:1000200000000000000000000000000089680008D7
:100030008D680008000000009168000895680008BD
:10004000716800087168000871680008716800082C
:10005000716800087168000871680008716800081C
:1000600071680008256A0008496A0008716800087C
:1000700071680008716800087168000871680008FC
:1000800071680008716800087168000871680008EC
:1000900071680008716800087168000871680008DC
:1000A00071680008716800087168000871680008CC
:1000B0001569000871680008E9680008716800089F
:1000C00071680008716800087168000871680008AC
:1000D00071680008E5690008716800087168000827
:1000E000716800087168000871680008716800088C
:1000F000716800087168000871680008716800087C
:10010000716800086D2A0008996800087168000885
:10011000716800087168000871680008716800085B
:10012000716800087168000871680008712A000889
:10013000716800087168000871680008716800083B
:10014000716800087168000871680008716800082B
:10015000716800087168000871680008716800081B
:10016000716800087168000871680008716800080B
:1001700071680008716800087168000871680008FB
:080180007168000871680008B5
:1001900010B5054C237833B9044B13B10448AFF3C1
:1001A00000800123237010BD8006002000000000A5
:1001B000D8A2000808B5034B1BB103490348AFF3AD
:1001C000008008BD0000000084060020D8A20008BE
:1001D00001F0FF01102A2BDB10F0070F08D010F8F8
:1001E000013B013A8B422DD010F0070F42B3F6D1FC
:1001F000F0B441EA012141EA014122F007047FF015
:1002000000070023F0E80256083C85EA010586EA6B
:10021000010685FA47F5A3FA87F586FA47F6A5FAA7
:1002200087F68EB9EED1F0BC01F0FF0102F00702B3
:1002300032B110F8013B013A83EA010313B1F8D15E
:100240000020704701387047002D06BF354603383F
:10025000073815F0010F07D1013015F4807F02BF78
:10026000013015F4C03F0130F0BC0138704700BFC9
:10027000034613F8012B002AFBD1181A01387047E6
:1002800081F0004102E000BF83F0004330B54FEA47
:1002900041044FEA430594EA050F08BF90EA020FB4
:1002A0001FBF54EA000C55EA020C7FEA645C7FEA47
:1002B000655C00F0E2804FEA5454D4EB5555B8BF6A
:1002C0006D420CDD2C4480EA020281EA030382EADB
:1002D000000083EA010180EA020281EA0303362D6D
:1002E00088BF30BD11F0004F4FEA01314FF4801C40
:1002F0004CEA113102D0404261EB410113F0004F52
:100300004FEA03334CEA133302D0524263EB430308
:1003100094EA050F00F0A780A4F10104D5F1200EA6
:100320000DDB02FA0EFC22FA05F2801841F1000101
:1003300003FA0EF2801843FA05F359410EE0A5F1D5
:1003400020050EF1200E012A03FA0EFC28BF4CF006
:10035000020C43FA05F3C01851EBE37101F00045BC
:1003600007D54FF0000EDCF1000C7EEB00006EEBC9
:100370000101B1F5801F1BD3B1F5001F0CD3490853
:100380005FEA30004FEA3C0C04F101044FEA4452AA
:1003900012F5800F80F09A80BCF1004F08BF5FEA31
:1003A000500C50F1000041EB045141EA050130BD11
:1003B0005FEA4C0C404141EB010111F4801FA4F1B4
:1003C0000104E9D191F0000F04BF01460020B1FA09
:1003D00081F308BF2033A3F10B03B3F120020CDA41
:1003E0000C3208DD02F1140CC2F10C0201FA0CF01F
:1003F00021FA02F10CE002F11402D8BFC2F1200C84
:1004000001FA02F120FA0CFCDCBF41EA0C01904039
:10041000E41AA2BF01EB0451294330BD6FEA040482
:100420001F3C1CDA0C340EDC04F11404C4F120026D
:1004300020FA04F001FA02F340EA030021FA04F37F
:1004400045EA030130BDC4F10C04C4F1200220FAD6
:1004500002F001FA04F340EA0300294630BD21FA14
:1004600004F0294630BD94F0000F83F4801306BFDA
:1004700081F480110134013D4EE77FEA645C18BFCE
:100480007FEA655C29D094EA050F08BF90EA020F65
:1004900005D054EA000C04BF1946104630BD91EA5D
:1004A000030F1EBF0021002030BD5FEA545C05D160
:1004B0004000494128BF41F0004130BD14F580049F
:1004C0003CBF01F5801130BD01F0004545F0FE4113
:1004D00041F470014FF0000030BD7FEA645C1ABF48
:1004E000194610467FEA655C1CBF0B46024650EA7F
:1004F000013406BF52EA033591EA030F41F40021AB
:1005000030BD00BF90F0000F04BF0021704730B530
:100510004FF4806404F132044FF000054FF0000105
:1005200050E700BF90F0000F04BF0021704730B5C6
:100530004FF4806404F1320410F0004548BF40429B
:100540004FF000013EE700BF42004FEAE2014FEAF0
:1005500031014FEA02701FBF12F07F4393F07F4FCB
:1005600081F06051704792F0000F14BF93F07F4FFD
:10057000704730B54FF4607401F0004521F0004140
:1005800020E700BF50EA010208BF704730B54FF0C6
:1005900000050AE050EA010208BF704730B511F0CB
:1005A000004502D5404261EB41014FF4806404F103
:1005B00032045FEA915C3FF4DCAE4FF003025FEA85
:1005C000DC0C18BF03325FEADC0C18BF033202EB0D
:1005D000DC02C2F1200300FA03FC20FA02F001FA67
:1005E00003FE40EA0E0021FA02F11444C1E600BF06
:1005F00070B54FF0FF0C4CF4E06C1CEA11541DBFB9
:100600001CEA135594EA0C0F95EA0C0F00F0DEF883
:100610002C4481EA030621EA4C5123EA4C5350EA68
:10062000013518BF52EA033541F4801143F48013B9
:1006300038D0A0FB02CE4FF00005E1FB02E506F04A
:100640000042E0FB03E54FF00006E1FB03569CF09F
:10065000000F18BF4EF0010EA4F1FF04B6F5007FA5
:1006600064F5407404D25FEA4E0E6D4146EB060617
:1006700042EAC62141EA55514FEAC52040EA5E50A0
:100680004FEACE2EB4F1FD0C88BFBCF5E06F1ED84A
:10069000BEF1004F08BF5FEA500E50F1000041EB81
:1006A000045170BD06F0004646EA010140EA02002E
:1006B00081EA0301B4EB5C04C2BFD4EB0C0541EA50
:1006C000045170BD41F480114FF0000E013C00F365
:1006D000AB8014F1360FDEBF002001F0004170BD89
:1006E000C4F10004203C35DA0C341BDC04F11404A2
:1006F000C4F1200500FA05F320FA04F001FA05F22E
:1007000040EA020001F0004221F0004110EBD370FA
:1007100021FA04F642EB06015EEA430E08BF20EA26
:10072000D37070BDC4F10C04C4F1200500FA04F3C9
:1007300020FA05F001FA04F240EA020001F000415B
:1007400010EBD37041F100015EEA430E08BF20EACE
:10075000D37070BDC4F1200500FA05F24EEA020E16
:1007600020FA04F301FA05F243EA020321FA04F045
:1007700001F0004121FA04F220EA020000EBD370FC
:100780005EEA430E08BF20EAD37070BD94F0000FFC
:100790000FD101F00046400041EB010111F4801F30
:1007A00008BF013CF7D041EA060195F0000F18BFE1
:1007B000704703F00046520043EB030313F4801F1D
:1007C00008BF013DF7D043EA0603704794EA0C0FD7
:1007D0000CEA135518BF95EA0C0F0CD050EA4106ED
:1007E00018BF52EA4306D1D181EA030101F000416A
:1007F0004FF0000070BD50EA410606BF1046194692
:1008000052EA430619D094EA0C0F02D150EA01369D
:1008100013D195EA0C0F05D152EA03361CBF1046DE
:1008200019460AD181EA030101F0004141F0FE417D
:1008300041F470014FF0000070BD41F0FE4141F401
:10084000780170BD70B54FF0FF0C4CF4E06C1CEA01
:1008500011541DBF1CEA135594EA0C0F95EA0C0FB6
:1008600000F0A7F8A4EB050481EA030E52EA033571
:100870004FEA013100F088804FEA03334FF0805592
:1008800045EA131343EA12634FEA022245EA1115BF
:1008900045EA10654FEA00260EF000419D4208BF70
:1008A000964244F1FD0404F5407402D25B084FEA1D
:1008B0003202B61A65EB03055B084FEA32024FF4C9
:1008C00080104FF4002CB6EB020E75EB030E22BF26
:1008D000B61A754640EA0C005B084FEA3202B6EBE6
:1008E000020E75EB030E22BFB61A754640EA5C0095
:1008F0005B084FEA3202B6EB020E75EB030E22BF25
:10090000B61A754640EA9C005B084FEA3202B6EB25
:10091000020E75EB030E22BFB61A754640EADC00E4
:1009200055EA060E18D04FEA051545EA16754FEA46
:1009300006164FEAC30343EA52734FEAC2025FEA64
:100940001C1CC0D111F4801F0BD141EA00014FF0F3
:1009500000004FF0004CB6E711F4801F04BF0143C4
:100960000020B4F1FD0C88BFBCF5E06F3FF6AFAEE0
:10097000B5EB030C04BFB6EB020C5FEA500C50F170
:10098000000041EB045170BD0EF0004E4EEA1131F3
:1009900014EB5C04C2BFD4EB0C0541EA045170BDFA
:1009A00041F480114FF0000E013C90E645EA060E3E
:1009B0008DE60CEA135594EA0C0F08BF95EA0C0F6C
:1009C0003FF43BAF94EA0C0F0AD150EA01347FF4B4
:1009D00034AF95EA0C0F7FF425AF104619462CE78B
:1009E00095EA0C0F06D152EA03353FF4FDAE1046EE
:1009F000194622E750EA410618BF52EA43067FF43F
:100A0000C5AE50EA41047FF40DAF52EA43057FF4CE
:100A1000EBAE12E74FF0FF3C06E000BF4FF0010CD9
:100A200002E000BF4FF0010C4DF804CD4FEA410C3D
:100A30007FEA6C5C4FEA430C18BF7FEA6C5C1BD00A
:100A400001B050EA410C0CBF52EA430C91EA030F8B
:100A500002BF90EA020F0020704710F1000F91EAE8
:100A6000030F58BF994208BF90422CBFD8176FEAB6
:100A7000E37040F0010070474FEA410C7FEA6C5C84
:100A800002D150EA013C07D14FEA430C7FEA6C5C8B
:100A9000D6D152EA033CD3D05DF8040B704700BFB7
:100AA0008446104662468C461946634600E000BF05
:100AB00001B5FFF7B7FF002848BF10F1000F01BDD7
:100AC0004DF808EDFFF7F4FF0CBF012000205DF8A2
:100AD00008FB00BF4DF808EDFFF7EAFF34BF012027
:100AE00000205DF808FB00BF4DF808EDFFF7E0FFC0
:100AF00094BF012000205DF808FB00BF4DF808ED11
:100B0000FFF7CEFF94BF012000205DF808FB00BF77
:100B10004DF808EDFFF7C4FF34BF012000205DF859
:100B200008FB00BF4FEA410C7FEA6C5C02D150EA3F
:100B3000013C0AD14FEA430C7FEA6C5C02D152EAD5
:100B4000033C02D14FF0000070474FF001007047A6
:100B50004FEA410212F5001215D211D56FF47873E5
:100B6000B3EB625212D94FEAC12343F0004343EA88
:100B7000505311F0004F23FA02F018BF4042704763
:100B80004FF00000704750EA013005D111F00040ED
:100B900008BF6FF0004070474FF00000704700BF83
:100BA00053B94AB9002908BF00281CBF4FF0FF31D4
:100BB0004FF0FF3000F07AB9ADF1080C6DE904CECA
:100BC00000F006F8DDF804E0DDE9022304B0704728
:100BD0002DE9F0478C460D460446089E002B51D166
:100BE0008A4217466DD9B2FA82FEBEF1000F0BD0D1
:100BF000CEF1200C01FA0EF520FA0CFC02FA0EF7E9
:100C00004CEA050C00FA0EF44FEA174A250CBCFB1F
:100C1000FAF81FFA87F90AFB18CC45EA0C4508FBDD
:100C200009F3AB420AD9ED1908F1FF3280F02381B4
:100C3000AB4240F22081A8F102083D44ED1AA4B273
:100C4000B5FBFAF00AFB105544EA054400FB09F92C
:100C5000A14509D9E41900F1FF3380F00A81A145CB
:100C600040F2078102383C44A4EB090440EA084002
:100C70000021002E61D024FA0EF40023346073604A
:100C8000BDE8F0878B4207D9002E54D0002186E8BA
:100C900021000846BDE8F087B3FA83F1002940F04F
:100CA0008E80AB4202D3824200F2FA80841A65EB56
:100CB00003050120AC46002E3FD086E81010BDE8A9
:100CC000F08712B90127B7FBF2F7B7FA87FEBEF13A
:100CD000000F34D1EB1B3A0C1FFA87FC0121B3FB48
:100CE000F2F8250C02FB183345EA03450CFB08F328
:100CF000AB4207D9ED1908F1FF3002D2AB4200F246
:100D0000D1808046ED1AA3B2B5FBF2F002FB10557C
:100D100043EA05440CFB00FCA44507D9E41900F1A3
:100D2000FF3302D2A44500F2B8801846A4EB0C04AD
:100D300040EA08409DE731463046BDE8F087CEF1F5
:100D4000200405FA0EF307FA0EF720FA04F83A0C1D
:100D500025FA04F448EA0308B4FBF2F14FEA184517
:100D600002FB11441FFA87FC45EA044501FB0CF322
:100D7000AB4200FA0EF409D9ED1901F1FF3080F011
:100D80008A80AB4240F2878002393D44EB1A1FFA59
:100D900088F5B3FBF2F002FB103345EA034500FB94
:100DA0000CF3AB4207D9ED1900F1FF386FD2AB421B
:100DB0006DD902383D44EB1A40EA01418FE7C1F199
:100DC000200722FA07F88B4005FA01F448EA0303EA
:100DD00020FA07FE4FEA134CFD404EEA040EB5FB25
:100DE000FCF94FEA1E440CFB19551FFA83F844EA3C
:100DF000054509FB08F4AC4202FA01F200FA01FAD7
:100E000008D9ED1809F1FF3043D2AC4241D9A9F11C
:100E100002091D442D1B1FFA8EFEB5FBFCF00CFBD6
:100E200010554EEA054400FB08F8A04507D9E41820
:100E300000F1FF3529D2A04527D902381C4440EAE9
:100E40000940A4EB0804A0FB02894C45C6464D4668
:100E500015D312D056B1BAEB0E0364EB050404FAB5
:100E600007F7CB401F43CC40376074600021BDE8DA
:100E7000F0871846F8E69046E0E6C245EAD2B8EBBD
:100E8000020E69EB03050138E4E72846D7E7404640
:100E900091E78146BEE7014678E702383C4445E7E2
:100EA000084608E7A8F102083D442BE7704700BF59
:100EB000CBB138B55D681C4695B19B6883B1E368DA
:100EC00073B169B1A3780BB940F0800013460A46AC
:100ED00001466078A847002818BF6FF0030038BDAE
:100EE0004FF0FF3038BD4FF0FF307047042A28BF65
:100EF0000422002B4ED02DE9F04117465A6882B0EB
:100F0000002A42D0D3F80880B8F1000F3DD0DA684B
:100F1000002A3AD0002838D0002936D0002F3CD003
:100F20009A780C788DF800400AB3012F6A4612D0E7
:100F30006D460646012416F801EF85F801E00134FC
:100F40005FFA84FE11F801CF05F802CFBE45F2D357
:100F50007F00013FBFB21C46017860783B46C04726
:100F6000002818BF6FF0030002B0BDE8F0817A1EC0
:100F700050FA82F2441E657805F07F0504F8015F9F
:100F80009442F8D1D3F80880CFE74FF0FF3002B099
:100F9000BDE8F0814FF0FF3070476FF00200E3E7EB
:100FA00030B583B0E022B6238DF806208DF80730E7
:100FB000A8B143689BB183688BB1C3687BB1044619
:100FC000034601220DF107010DF10600FFF78EFF28
:100FD000E368054602209847284603B030BD4FF02D
:100FE000FF35284603B030BDF0B53A4C83B000233E
:100FF0002488ADF804408DF800308DF80130A2B19E
:10100000536893B1936883B1D36873B169B11346E0
:1010100014460D46064669460222F420FFF748FFB3
:10102000034638B1184603B0F0BD4FF0FF33184601
:1010300003B0F0BD2046FFF7B3FF03460028F1D10F
:101040009DF8011095F802E0EA789DF80070287884
:101050006B7801F01F0141EA4E11920002F01C0270
:1010600095F804E021F01C01114307F01F070EF072
:10107000010247EA40179B0021F00101114303F0F0
:101080001C0327F01C071F438DF80110234601A8FD
:10109000022269468DF80070FFF728FF03460028FA
:1010A000C0D12868E0622A7984F83020002EB9D0B7
:1010B0009DF8002006F0030622F0030223461643A3
:1010C000694601A801228DF80060FFF70FFF034673
:1010D000A8E700BFF0A20008F8B14368EBB183684D
:1010E000DBB1C368CBB1F0B5044687B00525234614
:1010F00001222146D020FFF7DBFE18B92378563BAA
:10110000022B0DD9E3680A2098476B1E13F0FF05E8
:10111000EDD16FF0010007B0F0BD4FF0FF30704728
:101120002046FFF73DFF0028F5D16368009001904D
:101130000290039004900590002B6DD0A368002BC3
:101140006AD0E368002B67D06946234618228820BE
:10115000FFF7AEFE0028DED19DF803709DF8052054
:101160009DF802609DF804509DF801C09DF8003084
:101170009DF807E09DF8061046EA072645EA022595
:101180009DF809709DF80820668243EA0C232382AB
:1011900041EA0E219DF80A309DF80BE09DF80C60A5
:1011A000A58242EA07229DF80D709DF80E50E1825B
:1011B00043EA0E2346EA07269DF80FE09DF81170DA
:1011C0009DF81010228345EA0E259DF812209DF807
:1011D00013E0638341EA07219DF814309DF81570F0
:1011E000A68342EA0E2243EA07236284E583218430
:1011F000A3849DF817209DF8163084F82F0043EA49
:10120000022384F82D0084F82C0084F82E0084F842
:101210003000E38407B0F0BD4FF0FF307BE700BF44
:101220000A4601460020FFF7DFBE00BF49B14B6808
:101230003BB18B682BB1CB681BB10A462C31FFF751
:10124000D3BE4FF0FF307047F0B583B00023ADF848
:101250000430009300293BD04B68002B38D08B68BA
:10126000B3B3CB68A3B398B30B46044669460622D2
:10127000F720FFF71DFE78BB9DF804209DF8037052
:101280009DF801309DF800109DF805609DF8025012
:10129000120142EA07321B0142EA161243EA013305
:1012A0000F492260013A43EA15138A42636003F151
:1012B000FF3305D88B4288BF6FF00A0003B0F0BD42
:1012C0008B428CBF6FF00B006FF0090003B0F0BDD4
:1012D0004FF0FF3003B0F0BD6FF00C00EEE700BF41
:1012E000EEFF0F00002A3BD05368002B38D09368E4
:1012F000B3B3D368A3B3138A002930B40C46B8BF84
:1013000001F10F040D1EC3EB2414B8BF07355B00B9
:10131000B2F91210C3EBE50504FB04F4B2F9143082
:1013200001FB05F1241303FB04F40029B8BF01F20B
:10133000FF71002CB8BF04F57F544FEAE121B8BF1C
:101340003F3401EBA43404EB840111F1800348BF66
:1013500001F27F131B129462036030BC00207047BF
:10136000002303606FF00D00704700BF002A00F0FB
:1013700083805368002B7FD09368002B7CD0D36888
:10138000002B79D0936A03EBD3735B10A3F57A43F8
:10139000002BF0B41C46B2F91E60B2F92070B8BF41
:1013A000DC1CA41004FB04F403FB06F6E512760033
:1013B00007FB0565B2F91A60641304FB06F4B2F981
:1013C0001860002D03FB06F3B8BF033503EBD3739E
:1013D000002CB8BF07345B1013EBE40344BF03F5E4
:1013E0007F3303F2FF33B2F91C60D48AAD109B1433
:1013F00015EB064503F5004304FB03F348BF05F670
:10140000FF75214C01EB253104FB01F101F1434152
:1014100001F5A001DB1301608BB30029B9BFB1FB5B
:10142000F3F35B004900B1FBF3F3D90801FB01F4CE
:10143000B2F92610B2F92450144E640B01FB04F1EA
:101440009C0805FB04F4002CB8BF04F5FF5486FB90
:1014500001764FEAE171B2F92250B8BF1F34C1EBF7
:10146000A61101EB6432521948BF0F3203EB22126E
:1014700002600020F0BC70474FF0FF3070470360FF
:101480006FF00E00F6E700BFCBF3FFFF918102047F
:1014900020B102288CBF01200420704708B500F05D
:1014A000FFFD003018BF012008BD00BF20B1022899
:1014B0008CBF01200420704708B500F00FFA002807
:1014C0000CBF0020032008BD08B10420704710B5F0
:1014D00014460846DAB2214601F07CFA003018BF03
:1014E000012010BD08B10420704710B5144608460D
:1014F000DAB2214601F0F6F8003018BF012010BD25
:1015000030B583B001A9002003F0E0FD694600205A
:1015100003F07CFE9DF802309DF801509DF80440D8
:101520009DF805109DF806209DF803001B0443EA72
:10153000455343EAC42343EA411343EA52031430B8
:1015400043EA406003B030BD08B10420704708B5DD
:101550000846114600F0CEF9003018BF012008BD42
:1015600010B50D4A546B14F0450FFBD063070DD432
:1015700014F0010405D140F2FF5003F027FF20468C
:1015800010BD012003F022FF012010BD042003F054
:101590001DFF032010BD00BF002C01403B4A38B5A1
:1015A000546B14F0450F054603D1546B14F0450FEE
:1015B000FBD061070DD414F0010405D103F0C6FE81
:1015C000A8420BD0102038BD012003F0FFFE0120FF
:1015D00038BD042003F0FAFE032038BD40F2FF506E
:1015E00003F0F4FE204603F0B7FE294B03402BB175
:1015F000002805DB420005D5092038BD184638BD56
:101600001C2038BD830001D50A2038BDC50001D596
:101610000B2038BD040101D50C2038BD410101D596
:101620000D2038BDC20101D50E2038BD030201D501
:101630000F2038BD4502C5D4840201D5112038BD24
:10164000C10201D5122038BD020301D5132038BDD7
:10165000430301D5142038BD850301D5152038BDBD
:10166000C40301D5162038BD010401D5172038BDAB
:10167000420401D5182038BD830401D5192038BD96
:1016800010F0080F0CBF00201A2038BD002C0140BC
:1016900008E0FFFD2DE9F0434A4C83B000231025FC
:1016A00080464FF00809204640274FF48066656069
:1016B000E36000930193C4F80090A760266103F0F3
:1016C0002FFE2846FFF76AFF054618B1284603B0EB
:1016D000BDE8F0833C4BE0601B68A7601B04372526
:1016E000204684E82800266103F01AFE2846FFF70A
:1016F00055FF05460028E9D1344B4FF0FF31302229
:10170000186119609A60022101221846C3F80490FA
:10171000D9605A614FF0330903F02AFE2046256054
:10172000E560A7602661C4F8049003F0F9FD48461F
:10173000FFF734FF05460028C8D16F46244E40F21B
:101740002A6402E003F052FE68B9736B23424FF43F
:101750000010F7D0082003F049FE48B1082003F03C
:1017600035FE0425B2E703F019FE47F8040BECE759
:10177000022003F03BFE20B1022003F027FE0225E9
:10178000A4E7202003F032FE20B1202003F01EFE4B
:1017900006259BE74FF4007003F028FE28B14FF4B4
:1017A000007003F013FE072590E740F2FF5003F0AE
:1017B0000DFE9DE80C0012BA1BBAC8F80420C8F848
:1017C000003083E790090020C4060020180A00209A
:1017D000002C0140F0B5002383B004461846009366
:1017E000019303F0B9FD800103D50E23184603B021
:1017F000F0BD6846FFF74EFF03460028F6D1012CE6
:10180000019A03D0D20327D42523EFE75103FBD558
:101810001F4A204C1268E0601204204637254027FA
:101820004FF4806684E8A400266103F079FD284621
:10183000FFF7B4FE03460028D8D102220625204631
:10184000A760E36026612260656003F069FD2846B9
:10185000FFF7A4FE0346C9E70D4A0E4C1268E0608C
:1018600012042046372540274FF4806684E8A40000
:10187000266103F055FD2846FFF790FE0346002839
:10188000B4D1062520462360A760E3602661DBE72C
:10189000C4060020900900200E4AF8B512680E4BCD
:1018A00012044FF480610D24064640271846002597
:1018B0005C601A609F60DD60196103F031FD2046B5
:1018C000FFF76CFE044610B903F046FD3060204679
:1018D000F8BD00BFC40600209009002082B001239B
:1018E0008DF807309DF80700C01A18BF4FF0FF3081
:1018F00002B0704702280ED0032808D0012801D07A
:10190000002070474FF400330B6000207047202305
:101910000B60002070474FF400730B80002070476D
:1019200000B583B001238DF803309DF80330002209
:10193000012B019203D0FF2003B05DF804FB01A846
:10194000FFF7AAFF0028F6D10198C0F34320F3E780
:101950002DE9F047804B814D82B000247622184655
:101960001A751C605C609C60DC601C618DF807402F
:1019700003F0AAFC032003F0C5FC012003F0BCFC2B
:101980004FF4806328462C606C60AC60EC602B6187
:101990004FF4803403F0C4FC02E0013C00F0BC8052
:1019A000802003F023FD0028F7D040F2FF5003F021
:1019B0000DFD00238DF807309DF8073003F0FF027E
:1019C0002BB19DF80700C0B202B0BDE8F0874021FE
:1019D0004FF480634FF4D57608246048EA60A9602C
:1019E0002E606C602B6103F09BFC5D494A6B12F02A
:1019F000450F0AD14FF4803300E04BB14A6B12F02F
:101A0000450F03F1FF33F8D013B112F0040475D081
:101A1000042003F0DBFC03238DF807309DF807302A
:101A2000002B7BD14F4B01221A604FF080480023DE
:101A300040214FF48062372448482B60EB60A96056
:101A40002A616C6003F06CFC2046FFF7A7FD8DF85F
:101A500007009DF8073003F0FF06002BB1D148F0D6
:101A600000483E4F48F480180023372438464FF092
:101A7000400A4FF480692B60EB606C60C5F808A0E9
:101A8000C5F8109003F04CFC2046FFF787FD8DF859
:101A900007009DF8073003F0FF02002B91D12923A6
:101AA0003846EA60C5F80080C5F808A0C5F810906F
:101AB0006B6003F035FC2A4A546B14F0450FFBD0E1
:101AC00014F0040422D0042003F080FC03238DF8DA
:101AD00007309DF8073003F0FF00002B7FF471AF53
:101AE00003F03AFC002806F101064FF6FF7329DBEC
:101AF0009E42B9D11B238DF8073062E712F04003F4
:101B00008AD0402003F062FC234685E740F2FF5074
:101B100003F05CFC2346DAE703234BE70026402270
:101B20004FF4806337240D48AA602B612E60EE606D
:101B30006C6003F0F5FB2046FFF730FDB0468DF8F2
:101B4000070074E79E42D5D043007FF53AAF054BBE
:101B500002221A6035E700BF000A00209009002029
:101B6000002C0140BC060020F8B503F0D1FB10B9F1
:101B700025263046F8BD4C4F3B68042B44D04B4DD6
:101B80000023C0214FF4806228460224A9602A6104
:101B90002B60EB606C6003F0C3FBFFF7E1FC0646D3
:101BA0000028E6D103F0D8FB414C2060042003F06C
:101BB000D3FB6060082003F0CFFBA0600C2003F093
:101BC000CBFB3A68E060022A01D9062A29D100231A
:101BD0004FF480624021032434482A612B60EB607B
:101BE0006C60A96003F09CFB324A546B14F0450F03
:101BF000FBD060070BD414F001040DD103F0A6FB59
:101C0000032837D01026B4E700263046F8BD04205C
:101C100003F0DCFB0326ACE7012003F0D7FB012631
:101C2000A7E70123042AA4D0234A204813600021F7
:101C30001B044FF480620926C02485E84800E9604F
:101C40002A61AC6003F06CFBFFF78AFC06460028B3
:101C50008FD103F081FB194C2060042003F07CFB42
:101C60006060082003F078FBA0600C2003F074FB98
:101C7000E0607EE740F2FF5003F0A8FB204603F04F
:101C80006BFB10F4604F03D0810404D5132670E77A
:101C9000030C3A68C6E74204B4D4030401D50F2606
:101CA00067E73A680123BDE7BC06002090090020E1
:101CB0009C060020002C0140C4060020AC06002039
:101CC000F0B5A64DA64B2A681F686968DFF898E250
:101CD000140E0346E0B286091E70C4F3830400F0BC
:101CE00003000E0E5C7036019870C2F30744C2F315
:101CF0000720D2B2DC7018715A71DE80DA88DEF803
:101D000000E083F85670080AC1F3074492B242EA31
:101D1000141204F00F06C4B2DA80E2091E725A727D
:101D2000C0F380129A72C0F34012DA72C0F300124C
:101D30001A73012F4FF00002A3F854E05A7340F2D7
:101D4000C980022F00F0A680AA68E868854E61006D
:101D500001F07E01C4F380145C7699769F7E316831
:101D6000040ED2B247EAD217A50002F07F029F7696
:101D700005F00C05DA76E709C4F34112C4F38204D6
:101D80001F775A779C77DD7793F81FE0050C020ADE
:101D9000ECB24EEA941EC5F34017C0F3460C04F0B3
:101DA00001050020D4B283F81FE083F8207083F887
:101DB000210083F82250E50983F82350C2F38015EF
:101DC00083F82450C2F3401583F82550C1F3074728
:101DD000C2F30015C2F3810283F826503F0283F854
:101DE000272001250A0E04F0030483F8284083F815
:101DF00029C083F82A5083F82C20DF85DA8D746897
:101E0000C1F3072792B23A430906DA8519631A6BC0
:101E1000210E42EA01421A631F6BB268F168260A7A
:101E200006F47F463E431E631E6BC4F30727374309
:101E3000160C1F63E4B2170E360683F8344083F89D
:101E400035709E639E6B140204F47F0434439C63DC
:101E50009C6B120292B222439A639A6B42EA11621D
:101E60009A6393F83C400A0CC2F3031612023443FF
:101E700002F4706283F83C40DA87DA8FC1F30724FA
:101E800092B22243C1F34601DA8783F8401083F807
:101E90004150F0BD090401F47C111961AA68196967
:101EA000100E41EA002119611869C2F3074101438C
:101EB000196118690021013041F10001C90441EAAA
:101EC00050314FF40076C004D9649864C2F30724FB
:101ED0001E653AE7800200F4406018611869AA683C
:101EE000890001F47F71014319611F69110C140EFF
:101EF000E0B24E0047EA9017C1F3421E00F007001F
:101F0000C4F3C20406F00606C1F382011F611C750A
:101F1000587583F816E0D9751E76197EC2F307242A
:101F200041EAD4111976D3F810C0187E197A4FF00F
:101F3000010E02300EFA00F00EFA01FEC7170CF186
:101F4000010CA0FB0E010EFB0711A0FB0C670CFBA4
:101F50000177C3F850E0C3E91267F6E6AC0600204B
:101F6000BC0600209C060020C406002038B51A4B91
:101F70001B68032B18D0022B19D8B0F5805F13D043
:101F8000B0F5006F054615D00020FFF723FC04468E
:101F900058B9124B18461C751C605C609C60DC6074
:101FA0001C6103F091F900E02724204638BD00248D
:101FB000204638BD0120FFF70DFC04460028F4D16F
:101FC000064B18461C751C605C609C60DD601C61E3
:101FD00003F07AF9E9E700BFBC060020000A002000
:101FE00038B5094B072418604025184600214FF4E6
:101FF00080629D60D9601A615C6003F091F92046AF
:10200000BDE83840FFF7CABA9009002010B582B089
:1020100000238DF8073003F049F9FFF799FC8DF89C
:1020200007009DF8073023B19DF80700C0B202B049
:1020300010BDFFF799FD8DF807009DF8072002F00D
:10204000FF03002AF0D1144A144C13751046136094
:1020500053609360D360136103F036F92046FFF7B5
:102060002FFE8DF807009DF8073003F0FF0153B1F4
:102070009DF80730002BD7D14FF40060FFF776FFB3
:102080008DF80700D0E7B4F854000004FFF7A8FF6C
:102090008DF80700ECE700BF000A0020A809002027
:1020A00008B5FFF7B3FF003018BF0120404208BD5C
:1020B00038B5094B002218460C2440254FF48061A6
:1020C0009D6019611A60DA605C6003F029F92046AE
:1020D000BDE83840FFF762BA90090020F0B52F49FB
:1020E0000B6883B0002B51D12D482E4D03686BB97E
:1020F0002B785BB94FF0FF3305E0026832B92A78DC
:1021000022B9013B02D00A68002AF6D00023264AF1
:102110000B60546B14F4005432D04FF0FF3400E0E5
:10212000B4B1536B13F4005304F1FF34F8D11F4FD3
:102130003A68012A12D07CB11E4640F2FF5003F0EB
:1021400045F92B780BB12E78F6B2304603B0F0BDCE
:10215000164F3B68012B0CD00426EEE70193FFF7E6
:10216000A7FF019B3B600646002CE6D1002EE4D180
:10217000F2E7FFF79DFF06463C60002EDDD1EBE75E
:102180000A4F3B68012B03D02646D6E7054DBDE735
:10219000FFF78EFF3C600646CFE700BFC006002079
:1021A000CC060020D0060020002C0140C8060020EC
:1021B000F0B52F490B6883B0002B51D12D482E4D1F
:1021C00003686BB92B785BB94FF0FF3305E0026809
:1021D00032B92A7822B9013B02D00A68002AF6D027
:1021E0000023264A0B60546B14F4805432D04FF015
:1021F000FF3400E0B4B1536B13F4805304F1FF34A7
:10220000F8D11F4F3A68012A12D07CB11E4640F225
:10221000FF5003F0DBF82B780BB12E78F6B2304686
:1022200003B0F0BD164F3B68012B0CD00426EEE73F
:102230000193FFF73DFF019B3B600646002CE6D172
:10224000002EE4D1F2E7FFF733FF06463C60002E94
:10225000DDD1EBE70A4F3B68012B03D02646D6E7DA
:10226000054DBDE7FFF724FF3C600646CFE700BF02
:10227000C0060020CC060020D0060020002C014023
:10228000C806002010B54FF4807003F0A5F808BB15
:10229000022003F0A1F890B9082003F09DF858BB84
:1022A000202003F099F800BB102003F095F850BBF4
:1022B0004FF4007003F090F860BB1A4C03E002206A
:1022C00003F096F8174C00214CF23A3003F072F804
:1022D000207810BD134C00234FF48070237003F05E
:1022E00087F8114B01221A60EDE720200D4C03F016
:1022F0007FF806232370E6E708200A4C03F078F8FD
:1023000004232370DFE71020064C03F071F8052347
:102310002370D8E74FF40070024C03F069F80723EC
:102320002370D0E7D0060020CC060020F0B5294C61
:10233000294F83B001210C2002F096FD20460C228B
:10234000082102F0E5FC20460C22092102F0E0FC05
:1023500020460C220A2102F0DBFC20460C220B2135
:1023600002F0D6FC0C222046114602F0D1FC384681
:102370000C22022102F0CCFC01254FF470620223F2
:1023800000262046694600928DF805308DF804300D
:102390008DF806608DF8075002F058FC3846694603
:1023A0000423009302F052FC4FF480536946204608
:1023B00000938DF8076002F049FC29464FF4006055
:1023C00002F06AFD29464FF4800002F04DFD03B093
:1023D000F0BD00BF00080240000C024010B54FF4F1
:1023E000C06082B002F002FA01243122002301A869
:1023F0008DF804208DF805308DF806308DF80740F3
:1024000002F0FEF93B2301A88DF804308DF8054059
:1024100002F0F6F9FFF78AFF02B010BDF0B5234CC9
:10242000234E91B005460F4620464FF0FA5102F078
:102430002DFB2046002102F0DBFA204602F014FAC0
:102440004FF0006103950023019102964025042678
:102450004FF480624FF480414FF4805E2046059730
:10246000049506930A9307924FF400134FF4000269
:1024700009914FF440370DEB06010325CDF820E01C
:102480000F930E920B970C960D9502F085FA012290
:102490002046102102F0C0FA2046202102F0B2FAB4
:1024A0002046012102F0A4FA11B0F0BD58640240A8
:1024B000802C01402DE9F047DFF8DCC0DFF8DCE0DC
:1024C0003049314FBDF8205000248CF800400646BA
:1024D000CEF8004040F22A300C60FC6201211C461C
:1024E000174602F067FF30462946FFF797FF0120A5
:1024F00002F05AFF254B1B68022B3CD0244C0023D2
:10250000102620464FF040094FF48068E360666073
:102510002560C4F80890C4F8108002F001FF30462E
:10252000FFF73CF8064610B13046BDE8F0874FF0A3
:10253000180A2046E6602760C4F80890C4F81080A6
:10254000C4F804A002F0ECFE5046FFF727F8064658
:102550000028E9D10F4B9021012218464FF0FF349B
:102560005D60DE601E611C6099605A6102F000FFD0
:102570003046BDE8F0877F0A47EAC4574FF400753C
:10258000BCE700BFC8060020002C0140BC060020AC
:1025900090090020180A0020D0060020CC06002058
:1025A0002DE9F84FDFF83481464CDFF834C1464F4F
:1025B000BDF82850002188F8001021600124CCF8D3
:1025C00000400646F96240F22A302146914698467C
:1025D00002F0F0FE0B9B304603FB05F1FFF71EFFF8
:1025E000204602F0E1FE394B1B68022B62D0384CCA
:1025F0000023102620464FF0400A4FF48067E36026
:1026000066602560C4F808A0276102F089FE3046A4
:10261000FEF7C4FF064610B13046BDE8F88F2D4BDB
:10262000E0601B68C4F808A01B043726204684E835
:102630004800276102F074FE3046FEF7AFFF064601
:102640000028E9D10B9B23604FF0170B2046E66072
:10265000C4F808A02761C4F804B002F061FE58462F
:10266000FEF79CFF06460028D6D14FF0190B2046F6
:10267000E660C4F80090C4F808A02761C4F804B06C
:1026800002F04EFE5846FEF789FF06460028C3D1E9
:10269000114B0B9ADE6005FB02F54FF0FF349021E1
:1026A000012218465D601E611C6099605A6102F04B
:1026B0005FFEB1E74FEA592949EAC8594FF400755E
:1026C00095E700BFCC060020002C0140BC0600208E
:1026D00090090020C4060020180A0020D00600201F
:1026E000C80600202DE9F04310F0030383B00E4626
:1026F0002BD0013AD4B2FF2C05464FF000094FF41D
:102700000078194F19D005EB44214FF40072384678
:1027100005F0FCF8A21952020023CDF800802846EB
:10272000FFF7C8FEFFF744FD8146FFF7F9F80428DC
:10273000FBD1013CE4B2FF2CE5D119F1000018BF38
:102740000120404203B0BDE8F0834FF400710192D4
:1027500000917202FFF724FFFFF72AFD8146FFF781
:10276000DFF80428FBD1E8E7D40600202DE9F0418A
:10277000234C244D90B080460F4620464FF0FA512E
:1027800002F084F92046002102F032F94FF0006691
:10279000204602F069F8002301964FF48062042677
:1027A0004FF480414FF4805E2046059702950493D4
:1027B00006930A9307924FF400134FF40002099115
:1027C0004FF440370DEB06010325CDF820E00F93C1
:1027D0000E92CDF80C800B970C960D9502F0DCF85C
:1027E00001222046102102F017F92046202102F094
:1027F00009F92046012102F0FBF810B0BDE8F08194
:1028000058640240802C01402DE9F843DFF8D0C025
:10281000DFF8D0E02D492E4FBDF8205000248CF871
:1028200000400646CEF8004040F22A300C600121FC
:10283000FC621C46174602F0BDFD012002F0B4FD0B
:1028400030462946FFF792FF224B1B68022B36D0F9
:10285000214C0023102620464FF040094FF4806899
:10286000E36066602560C4F80890C4F8108002F048
:1028700057FD3046FEF792FE064608B1BDE8F883E4
:10288000164B4FF0FF319022186119609A6018467C
:10289000022101225D60D9605A61112502F068FDB4
:1028A00020462760C4F80890E660C4F81080656090
:1028B00002F036FD2846BDE8F843FEF76FBE7F0AFA
:1028C00047EAC4574FF40075C2E700BFC8060020AE
:1028D000002C0140BC06002090090020180A0020AE
:1028E000D0060020CC0600202DE9F047DFF8DCC040
:1028F000314CDFF8DCE0314EBDF82050DDF82480AB
:1029000000218CF8001021600124CEF80040074619
:10291000F16240F22A3021469946164602F04AFDFD
:10292000384608FB05F1FFF721FF204602F03CFD89
:10293000234B1B68022B39D0224C00234FF0100A86
:1029400020464FF040094FF48067E360C4F804A0CC
:102950002560C4F80890276102F0E2FC5046FEF7BB
:102960001DFE824608B1BDE8F087174B4FF0FF31DE
:10297000902205FB08F5186119609A600221012276
:1029800018465D60D96012255A6102F0F1FC2046BC
:102990002660C4F80890C4F80CA02761656002F0B6
:1029A000BFFC2846BDE8F047FEF7F8BD760A46EAC8
:1029B000C9564FF40075BFE7CC060020002C01403B
:1029C000BC06002090090020180A0020D006002034
:1029D000C80600202DE9F04310F0030383B08846B9
:1029E00029D0541EE4B2002A3BD01F4D07464FF4B5
:1029F000007904EB080252020023CDF8009028462B
:102A0000FFF702FFFFF76AFB0646FEF789FF04287F
:102A1000FBD107EB4420013C4FF400722946E4B29D
:102A200004F074FFFF2CE4D1321C18BF0122504285
:102A300003B0BDE8F0834FF40071019200914FEABA
:102A40004822FFF751FFFFF749FB0446FEF768FFF6
:102A50000428FBD1221C18BF0122504203B0BDE85C
:102A6000F0831046E4E700BFD4060020FFF70ABC5D
:102A7000064B1B6813F0C05F00D17047044B05483C
:102A800001224FF0C2511A6002F000B80064024007
:102A9000C006002058640240016869B10A4601E09E
:102AA0003A2B06D012F8013B1F2BF9D8074B1878A8
:102AB00070478B1C9A4202D04FF0FF3070470B7862
:102AC000302BF9D102600020704700BFD4080020ED
:102AD00058B110B5036882B004460BB11A7842B9F8
:102AE000092000230B6002B010BD002309200B60F9
:102AF00070478088DA889042F2D158780191FEF7C9
:102B0000D5FC10F001000199EAD123680B6002B0F6
:102B100010BD00BF0A44013811F8013B00F8013F25
:102B20009142F9D1704700BF70B500F138060446F4
:102B3000426B407831460123FEF7D4FC60B9616BEB
:102B4000A36A226AE070CB1A9342054602D2A378A8
:102B5000022B03D0284670BD012070BD0A44607866
:102B600031460123FEF7BEFC284670BD38B5436BE5
:102B70008B4218D0C37804460D467BB92A46012300
:102B800004F138016078FEF79FFC002818BF4FF071
:102B9000FF3565630CBF0020012038BDFFF7C4FF7F
:102BA0000028EBD038BD002038BD00BFF8B5C37891
:102BB00005465BB92B78032B0DD0002268781146AF
:102BC000FEF7C2FC003018BF0120F8BDFFF7ACFFD4
:102BD0000028EFD0F8BD2B79012BEED105F138019B
:102BE0000B4605F50E72002403F8014B9342FBD10E
:102BF0006B6928696A6A85F820321F0A1E0C1B0E51
:102C00004FEA102E85F8217285F82262070C060E15
:102C100085F8233285F82402AA235520013285F84D
:102C2000267285F827625227612685F8360285F8D4
:102C300037324120722385F83B0085F81E0285F863
:102C40001C3285F81D3285F825E26A6385F83870F4
:102C500085F8397085F83A6085F81F620123687835
:102C6000FEF740FC2C71A8E700224FF0FF3310B5AF
:102C7000C27043630446FFF779FF08B1042010BD1A
:102C800094F8371294F836324AF6552243EA012373
:102C9000934201D0032010BD94F83830EB2B05D0BF
:102CA0001833DBB2012B01D9022010BD94F86E302D
:102CB000462B07D194F86F30412B03D194F8703034
:102CC000542B15D094F88A300A4904F18B02463B04
:102CD0008F34002BE8D112F8013B11F8010FA2420A
:102CE000A3EB0003F5D1002B14BF0220002010BD80
:102CF000002010BD54A30008F0B5002385B00B6080
:102D00000F461446FFF7C8FE061E18DBBE4B53F8ED
:102D10002650BDB13D602B7804F0FE0423B16878E5
:102D2000FEF7C4FBC70710D5F0B2002368702B7004
:102D3000FEF7AEFBC1070ED5032005B0F0BD0B209A
:102D400005B0F0BD0C2005B0F0BDB4B310F0040028
:102D5000F3D00A20F1E70CB14207FAD4002128464B
:102D6000FFF782FF022806D0042824D0012840F271
:102D7000BE800D20E1E76C46694605F5007305F558
:102D8000107613F8062C42B11F8813F8010C13F8C3
:102D9000022C40EA072042EA00221033B34241F8F5
:102DA000042BEED104AF54F8046B46B90320A742BC
:102DB000F9D10428DDD10120BFE72046BDE7314627
:102DC0002846FFF751FF0128F1D895F8442095F8DF
:102DD000433043EA0223B3F5007FCAD195F84F2070
:102DE00095F84E3053EA022340F08380B5F85E1028
:102DF00095F85D3095F85C2043EA012342EA03220E
:102E000095F848702A627B1E012BAF70B1D895F8F7
:102E100045E01FFA8EF36B81002BAAD00EF1FF3331
:102E200013EA0E0FA5D195F84A3095F8494044EAC7
:102E3000032423072C819CD195F84C1095F84B3036
:102E400053EA012309D1B5F85A0095F8591095F8BD
:102E5000583041EA002143EA012395F8470095F8EC
:102E6000461051EA002184D002FB07F701EB141051
:102E700038448342FFF47DAFDFF898C11B1AB3FBDF
:102E8000FEF303F1FF3EE6453FF673AF4FF6F57EE6
:102E900073453FD840F6F57E73452CD80233314454
:102EA0003044EB61A96228636E62002C3FF461AF8D
:102EB000394403EB430003F00103E96203EB5003E1
:102EC000012103F2FF13B2EB532FFFF452AF4FF087
:102ED000FF3380226B612B612A714C4A2970138861
:102EE00001339BB200201380EB80A86125E7002608
:102EF0006BE71A4684E7023331443044EB61A96240
:102F000028636E62002C3FF434AF3944E9625B0001
:102F10000221D6E795F863E095F862706E6231445D
:102F200002333044A96257EA0E21EB6128637FF433
:102F300020AF002C7FF41DAFB5F8667095F86500E2
:102F400095F864109B0040EA072003F2FF1341EA62
:102F50000021B2EB532FE962FFF40BAF95F8691033
:102F600095F8683043EA01234FF0FF328021012BAE
:102F70006A612A61297101D00321AEE7711C2846DC
:102F8000FFF7F4FD0028F7D195F8372295F836328F
:102F90002C7143EA02234AF655229342ECD1688F02
:102FA00095F8392095F83830194942EA002243EA69
:102FB00002238B42E0D1B5F81E0295F81D2295F848
:102FC0001C3201F1FF5101F5005142EA002220318B
:102FD00043EA02238B42CFD1B5F8226295F8210251
:102FE000B5F8264295F8251295F8202295F8243256
:102FF00041EA042140EA062043EA012342EA002292
:103000006A612B61032168E7D8080020DC080020F2
:1030100052526141F4FFFF0F2DE9F84F0678022E5E
:1030200004460D46904657D0032E2ED0012E03D0D5
:1030300002273846BDE8F88F816A05EB550901EB98
:103040005921FFF793FD07460028F2D1EB0709F15C
:10305000010A04F1380BC9F3080955D51BF80930EA
:1030600003F00F0343EA08130BF80930A16AE67076
:1030700001EB5A212046FFF779FD00284ED1CAF313
:1030800008035B44C8F3071855E0816A01EBD511CA
:10309000FFF76CFD07460028CBD1AD0004F13800E6
:1030A00005F4FE75411928F070484B881B0403F0A5
:1030B000704343EA080800F805804FEA18264FEAF3
:1030C000184201234FEA18684E708A7081F8038015
:1030D000E3703846BDE8F88F816A01EB1521FFF7F0
:1030E00045FD07460028A4D16D0005F4FF7504F1E5
:1030F00038035919C8F3072003F8058001224870E6
:10310000E2703846BDE8F88F0BF80980A16AE670D6
:1031100001EB5A212046FFF729FD08B1074688E751
:10312000CAF30803C8F303281BF8032022F00F0298
:1031300042EA08085B44012283F80080E27078E7E5
:10314000012919D9C2699142F8B5064607D2027819
:10315000022A0C4629D0032A10D0012A01D00120CE
:10316000F8BD816A04EB540701EB5721FFF7FEFC21
:1031700068B34FF0FF30F8BD01207047816A01EB62
:10318000D411FFF7F3FC0028F3D1A10006F13803B6
:1031900001F4FE715A18585C5188537843EA0123B0
:1031A00040EA032020F07040F8BD816A01EB142151
:1031B000FFF7DCFC0028DCD1610006F1380301F4E4
:1031C000FF715A18585C537840EA0320F8BDC7F3E2
:1031D0000803B16A3344013701EB5721304693F8B5
:1031E0003850FFF7C3FC0028C3D1C7F308033344AA
:1031F00093F83800E30745EA00204CBF0009C0F30C
:103200000B00F8BDB1F5001F01D302207047CA06BC
:10321000F8B50C4601D00220F8BD8168046105466E
:10322000076829B93B78022B19D9FB6ABBB119464B
:103230007E897602B44226D3A41B384608E00128D2
:10324000E9D9FB699842E6D2A6421DD82868A41B9A
:10325000FFF776FF431C0146F1D10120F8BD3B8901
:10326000B3EB541FD7D9FA6AAA616961002AD2D098
:1032700007F13803C4F3080102EB54220B44EB615D
:10328000AA610020F8BDFB69023B881E98423BBF43
:103290007A893B6B002200FB0232AA61E5E700BF9E
:1032A0002DE9F04107468846066871BB356925B3AC
:1032B000F3699D4228BF0125736913B3F3692C4656
:1032C00006E0012815D001305BD0AC4219D0F3697B
:1032D00001349C4202D3012D13D9022421463868BF
:1032E000FFF72EFF0028ECD1012C02D9F3699C4294
:1032F0002FD301242046BDE8F08173690125002BFE
:10330000DCD100242046BDE8F0813046FFF718FFED
:1033100001280446EDD9421C33D0F3699842E9D321
:103320007269002AEDD008F10104A34298BF02247B
:1033300021463868FFF704FF0128DAD0431C20D06B
:1033400098B33569F369012D32D99D4228BF4546AE
:10335000B5E74FF0FF3221463046FFF75DFE70B90A
:10336000B8F1000F12D0B8F1010FC2D9F369984536
:10337000BFD2414622463046FFF74EFE30B101280B
:10338000B7D14FF0FF342046BDE8F081F369726990
:103390003461023B9A4201D8013A7261337943F0B9
:1033A000010333712046BDE8F081002C9CD1F36904
:1033B000454684E7012908D9F8B50668F3699942BA
:1033C0000D46074603D30220F8BD0220704762B1C4
:1033D000012AF8D99342F6D9114630464FF0FF3210
:1033E000FFF71AFE48BB386816E0304614E029465D
:1033F00000223046FFF710FEF8B9F2697369911E9A
:103400008B4205D23179013341F001017361317191
:10341000944213D2386825462946FFF791FE0446A8
:1034200060B10128CFD0431C06D0012DCBD9F36960
:103430009D42DCD30220F8BD0120F8BD0020F8BD7C
:10344000F8B5C37805460C4653BBEB69023C023B1A
:103450009C4220D3002605F138076E633B4605F5F4
:103460000E71002203F8012B8B42FBD16B891C46A5
:103470006BB1002402E001349C4208D20123A2195E
:1034800039466878FEF72EF86B890028F3D0181BB0
:1034900018BF0120F8BD6E892B6B04FB0636DAE7F6
:1034A000FFF742FB0028D0D00120F8BD2DE9F04104
:1034B00004692034B4F5001F82B0054610D2836938
:1034C000002B35D0C4F3080206684ABB0F46416999
:1034D0000133836100292FD13389B3EB541F1FD8E7
:1034E0000023AB61042002B0BDE8F081012842D086
:1034F000B0F1FF3F41D001463046FFF7A1FF002861
:103500003BD1F369019AC5F81480023BA8F1020887
:1035100098453BBF7389316B002308FB0313AB61F4
:10352000383616440020EE612C6102B0BDE8F0810F
:10353000042002B0BDE8F0817389013B13EA5423F3
:10354000EED130460192FFF7FBFD01288046019A3B
:1035500011D9B0F1FF3F10D0F3699842D3D3002FB7
:10356000BED0696901922846FFF79AFE804600287E
:10357000BCD10720B7E70220B5E70120B3E700BFC1
:103580002DE9F04F002185B006460768FFF73AFEA7
:10359000002854D14FF0FF334FF0FF0AF3629846F2
:1035A000D1460BE00F2B4DD0C6F82C804FF0FF0911
:1035B00000213046FFF77AFF002840D1B169384634
:1035C000FFF7D4FA00283AD1F4692578002D00F0ED
:1035D0009180E27AE52D02F03F03B371E4D0120747
:1035E000E0D40F2B2ED0B9F1000F10D104F10B0550
:1035F000214611F8012B4FEAC91343EA590952FA3F
:1036000089F9A9425FFA89F9F3D1CA4517D096F82A
:103610002B30DB07C8D42546314615F80B3B11F893
:10362000202F01349B1A002BBED114F8013B11F856
:10363000012FAC42A3EB0203F5D1002BB4D105B0AE
:10364000BDE8F08F96F82B305806B1D469064CD5FA
:10365000336994F80DA0F36205F0BF0594F80DB03E
:10366000D34544D1E27EA37E53EA02233FD194F8AE
:1036700000A02D4BFA6800920AF03F0A0AF1FF3AC7
:103680000AEB4A02012103950AEB820A25460197BB
:103690001C4602960B4613E0BAF1FE0F1FD801F04C
:1036A0004FF8009B074633F81A0001F049F88742AB
:1036B00015D14B46B2461D4AA2421FD014F8011F35
:1036C00015F8019068180AF10106407849EA0029C6
:1036D0004846002BE0D14FF6FF729145EBD0019F99
:1036E000029EDA464FF0FF0962E7A945B6D04FF0D7
:1036F000FF095DE7042005B0BDE8F08F2C469E462B
:103700002378019F039D029E5A0606D5BEF1000F45
:1037100003D0009B33F81A3023B9013D5FFA85F9D5
:10372000DA4645E7DA46E2E744A3000850A300087A
:103730002DE9F04F0B78D0F800B02F2B83B00D4659
:10374000074627D05C2B25D0DBF8183083602B7818
:103750001F2B28D95A46D2F80C800024A8F1020663
:10376000802B05F1010298B227D99F2B03D9203372
:10377000DBB21C2B21D86B783F2B05D97E2B41D98E
:1037800083F080027C2A3DD9062003B0BDE8F08F8B
:1037900015F8013F2F2BFBD05C2BF9D00023BB6029
:1037A0002B781F2BD6D880233846002187F82B3062
:1037B00003B0BDE8F04FFFF725BD002840F07F8142
:1037C00013461A782F2A1D4603F10103F9D05C2A0B
:1037D000F7D01F288CBF00260426012C00F094800F
:1037E000022C00F08C804CB108EB440232F8023D10
:1037F000202B01D02E2B2AD1013CF7D10023A8F891
:103800000030C1E703EB002080B202354FF469714C
:1038100000F074FF0028B7D01F2816D92F2814D025
:103820005C2812D07F2809D82228ADD0A54A2A23A7
:103830009842A9D012F8013F002BF9D1FF2CA3D058
:1038400026F8020F01342B788AE72A46B8E74FF0B2
:10385000000328F81430B8F80030202B08EB44029D
:1038600040F0E8804146002331F8020F202803F1A0
:103870000103F9D046F0030632F8021D2E2901D0CB
:10388000013CF9D107F12B0007F12002202102F8B9
:10389000011B8242FBD14FF00009CA46082238F8CA
:1038A00013000133002875D0202866D02E2862D05E
:1038B000914567D2A34200F0A8807F2800F2CE8015
:1038C0002B2800F0C180DFF800E22C21814200F0BB
:1038D000BB801EF8011F0029F8D1A0F1410189B277
:1038E000192901D84AF0020AA0F1610189B2192907
:1038F00097BF2038C0B2C0B24AF0010AA7E0B8F8BA
:1039000002302E2B7FF470AFB8F800302E2B7FF4EE
:103910006BAF4FF0000328F8143007F11F020023AB
:103920009C4294BF20212E2101330B2B02F8011F52
:10393000F6D146F0200687F82B603846FFF720FEC8
:1039400097F82B3000284FD15A073FF51EAFBB79AF
:10395000DB0640F1B2803B699BF80010C3F308021C
:103960000BF1380313440329D87E9A7E42EA0022E1
:1039700056D0BA603FE0A34202D046F003068EE77D
:10398000914542D30B2A00F08980A3423FD046F0F4
:1039900003063CD997F82030E52B04BF052387F8B0
:1039A0002030082A04BF4FEA8A0A5FFA8AFA0AF02E
:1039B0000C030C2B3BD00AF00303032B37D0B307C7
:1039C00009D41AF0010F18BF46F010061AF0040FC0
:1039D00018BF46F0080687F82B603846FFF7D0FD81
:1039E00097F82B300028AFD004287FF4CEAE9C0689
:1039F0005ED5590702D43A682B78ACE680230020C4
:103A000087F82B3003B0BDE8F08F0B2A46D04FEA81
:103A10008A0A5FFA8AFA23460B224FF008093EE72A
:103A2000597D1B7D43EA012342EA0342A1E746F0A8
:103A30000206C4E72E2B4FF000037FF41DAF19E7F9
:103A4000664600287FF43CAF46F003065F2007EB94
:103A5000090109F1010981F8200020E70192009392
:103A600000F06EFE4FF4697100F020FEFF2846F072
:103A7000020C009B019AE3D9511E894503D346F0FD
:103A8000030691460BE707EB09014FEA102E664645
:103A900009F1010981F820E0C0B2D8E797F8203099
:103AA000E52B46F0030682D1052387F820307EE718
:103AB00013F0040F08BF052067E6052065E61546EC
:103AC000A4E600BF5DA3000869A300082DE9F04F3C
:103AD00090F82B3013F0A00289B004D006263046AF
:103AE00009B0BDE8F08FD0F80080D8F80C30198804
:103AF000002900F05C81914633F8022F09F1010999
:103B0000002AF9D100F120040546214605A80C221F
:103B1000FFF700F89DF81F30DE077CD5402385F8BD
:103B20002B300B2205A920464FF0010AA64FFEF7C5
:103B3000F1FF53460DF1130E072000E0084603F095
:103B40000F0606F13002392A88BF06F137021B0939
:103B500000F1FF310EF80129F0D108AA0A447E26AF
:103B600002F8146CB9B195F82020202A13D002383D
:103B700002E0E25C202A0ED0802A09D902F1200658
:103B80009F2AF6B201D91C2E02D8984203D00133E5
:103B900001339942EDD8234408AA0A44072994BF67
:103BA00012F8142C202203F8012BA3EB040298BF77
:103BB0000131072AF0D92846FFF7E2FC064618BB78
:103BC0000AF1010ABAF1640F7AD00B2205A9204646
:103BD000D8F80C60FEF79EFFBAF1050F12D9023E2D
:103BE000534636F8022F002AA4D0102102F001001B
:103BF00000EB4303D80348BF7B4001394FEA520230
:103C0000F4D1EEE7534695E704287FF468AF9DF8BA
:103C10001F3085F82B309B0745D44FF00109002158
:103C20002846D5F800A0FFF7EDFA0646002844D153
:103C3000074605E03746FFF739FC064600283CD129
:103C4000A9695046FEF792FF012106460F44A0BB2A
:103C5000EB691B78E52B284601D0002BEAD1B9454A
:103C6000E9D1B9F1010A30D1A9694046FEF77EFFDA
:103C7000064600287FF433AFEB69314603F120029A
:103C800003F8011B9342FBD121460B22E869FEF7A2
:103C900041FF95F82B30E96903F0180301220B73FB
:103CA00088F803201BE7494B09F10C09A3FB0939EC
:103CB0004FEA990909F10109B1E7042E7FF40FAF2A
:103CC0000726304609B0BDE8F08F29692846A1EBE8
:103CD0004A11FFF797FA064600287FF400AF8346A3
:103CE000214605F12B004FEACB1311F8012B43EAD3
:103CF0005B0352FA83F381425FFA83FBF3D1DFF86F
:103D0000D0900194A9694046FEF730FF0346002891
:103D100058D15FFA8AFC0CF1FF3707EB470207EB3B
:103D20008207D8F80C40EE69294A009207F1004E4C
:103D30000EF1FF3E4FF00F0286F80DB004EB4E0E71
:103D4000F2723073B076F07601213EF8022F725491
:103D50003144100A013748700133EAB90D2B0AD0FB
:103D6000013B4B44FF2213F8011F7018725419498C
:103D700042709942F7D14CF0400C012386F800C004
:103D8000002188F803302846FFF790FBD0B9BAF13C
:103D9000010AB7D1019C67E70D2B0AD04FF6FF71DE
:103DA0008A42DDD0009A12F8011F0092CDE78946C1
:103DB000A8E64FF6FF739A42DDD034F81730002B97
:103DC000D9D0DAE706468AE6211001004FECC44E4E
:103DD00044A3000850A300082DE9F8430024076815
:103DE0008C758369002B00F08B80C36A01330D460C
:103DF000064632D0A046A146FA6801E08046023469
:103E0000105B002800F08980B8F1000F05D100F5A3
:103E100020539BB2B3F5006FF0D340EA08404FF453
:103E2000697100F043FCFF28C9F1FF036AD9012B37
:103E300071D905EB0903020AD8759A7502239944D2
:103E4000FA684FF00008DAE70346B8F1000F18BF30
:103E500000232B4400229A75AC7DF76900217E1E59
:103E60000A464FF02E0E16F8013F98B2202802F1B4
:103E7000010207D0052808BFE523092A5AD068188F
:103E8000013143720B2AEED16B1800225A720CBB1F
:103E9000002944D06B7A002B44D005F1090105F1CB
:103EA00015029BB2A3F14100192807D8092C3E7BCB
:103EB00034BF08201020064218BF203302F8013F0B
:103EC00011F8013F0134002BEBD12C440023A375E2
:103ED0003B7B6BB3FB7A2B72F98B7A7F3B7F42EA99
:103EE000012243EA02232B60FA7DBB7D43EA0223D1
:103EF000EB807A7E3B7E43EA0223AB80BDE8F88309
:103F0000BDE8F88300289FD0002B9ED005EB090266
:103F10000123907593E7002397E74B4695E73F23EE
:103F2000AB7501242C440023A3753B7B002BD1D11E
:103F30006B72CFE70B29A2D86818013180F809E02D
:103F40009DE700BF10B584B004AB019043F8041D99
:103F5000184600911446FEF79FFD002816DB0D4A17
:103F600052F820300BB100211970019B0BB10021D8
:103F7000197042F8203014B9204604B010BD002258
:103F800001A96846FEF7B8FE04B010BD0B2004B0CE
:103F900010BD00BFD80800202DE9F041ADF5107D1F
:103FA000019188B102F03F070446154603A93A463D
:103FB00001A8FEF7A1FE064660B10023236030464B
:103FC0000DF5107DBDE8F081092630460DF5107D18
:103FD000BDE8F081039B0199049310AADA6004A85C
:103FE000FFF7A6FB80B99DF93B30002BC0F2828021
:103FF00015F01C0F64D09DF8163013F0110F67D127
:104000006D070DD50826D8E715F01C0F56D00428EB
:1040100054D104A8FFF75AFD00284FD147F00807F4
:1040200038076CD4DDF80CE00B9BDEF834202262FC
:1040300063629EF80010D87E9A7E032942EA00222D
:1040400051D0A260D88B5A7F1B7FBEF80610A1808A
:1040500042EA002243EA022304F128050022E36039
:10406000C4F800E027746274E26162612B4604F5D3
:104070000A7103F8012B8B42FBD1B9069FD5E76883
:10408000002F9CD0BEF80A80A16867614FEA4828DB
:1040900047457AD9A7EB080704E0421C21D0B84570
:1040A00073D21F462068FFF74BF801280146A7EBA3
:1040B0000803F2D80226A1617FE7062006467CE7C6
:1040C0009DF81630D9065ED4AA0703D5DB0701D5C3
:1040D000072672E72807DDF80CE0A5D547F0400772
:1040E000A2E70126E7E7587D197D41EA002142EA6F
:1040F0000142A6E715F01C0FDFD106265DE7039B02
:104100000B9D1B78EA7E95F81A80032B48EA02285B
:1041100059D0FDF7F5F9010A020C030E2A74A873B1
:10412000E9736B740B9BDDF80CE02022DA720B9BB9
:1041300000229A76DA769EF80010032904BF1A75D9
:104140005A750B9B002201211A775A779A77DA77F2
:104150008EF80310B8F1000FC0D0414604A8DEF875
:104160003450FFF727F90028A8D129460398FEF715
:10417000FDFCDDF80CE008F1FF33CEF8103000282C
:10418000ACD0064619E7042617E7C7F30803A16178
:10419000002B3FF414AF039BDA690239023A9142D3
:1041A00018D25A89186B01FB02029AB102EB57220E
:1041B000E261587829460123FDF786F900283FF48B
:1041C000FEAE0126F9E66A7D2B7D43EA022348EA2A
:1041D00003489EE70226F0E62DE9F04F9A4685B0A7
:1041E00000238946CAF8003003A916460446FEF7A4
:1041F0006FFC074628B9677C1FB9227C910704D45D
:104200000727384605B0BDE8F08F6369F34228BF41
:10421000DE43002E00F0818004F12802019252E07A
:10422000039AB2F80AB00BF1FF3B1BEA532B0FD1F4
:10423000002B6BD1A068002800F08180012800F0DD
:104240009C80431C5FD0A368A061039A03B9A0605F
:1042500094F91030002B64DBA169D369A1F1020845
:10426000023B984580F089805389116B08FB03114C
:10427000002900F08280750A0BEB010837D00BEBA8
:104280000501994288BFA3EB0B0550782B464246A7
:104290004946FDF727F9002835D1E169A1EB08016E
:1042A0008D425ED86D026369E268DAF800102B4433
:1042B0009A4238BF1A462944761BCAF80010A9440E
:1042C000E260636128D0C3F308000028A8D0C0F5DD
:1042D0000075019BB54228BF354618442A46494619
:1042E000FEF718FC237C63F07F032374DBE7E369AC
:1042F0006069984502D0E368984228D3C4F81C80CE
:10430000C0F30800E3E7012767747AE7A169204654
:10431000FEF7C6FF002891D1227C42F040022274B1
:104320006FE750780199E2690123FDF7DBF8002877
:10433000E9D1237C039A03F07F0323748CE7594669
:104340002046FEF7ADFF00287FF478AFE4E7507811
:10435000019901234246FDF7B7F80028D3D16069DF
:10436000CCE709EB41214FF400720198FEF7D2FB34
:10437000237C03F07F03237494E70227677440E7EC
:10438000F0B583B001A90446FEF7A2FB002836D1A0
:10439000237C5A0633D51B0638D4FDF7B1F8216AC1
:1043A00005460198FEF7E2FB48BB636ADA7A42F001
:1043B0002002DA72A26821689A76C2F30720D876C2
:1043C000097803291DD0E2681A7701999D75160AAC
:1043D000100C120E5E779877DA7700202F0A2E0CD9
:1043E00001222D0E9874D874DF751E765D7608460E
:1043F000CA70FEF7DBFB237C23F04003237403B079
:10440000F0BD120C110A1A755975DCE7019BE269BF
:10441000587804F128010123FDF764F820B9237CC2
:1044200003F07F032374B8E70120E8E710B582B0FA
:104430000446FFF7A5FF08B102B010BD01A9204650
:10444000FEF746FB0028F7D1206002B010BD00BF88
:1044500030B5ADF5117D03A90190002201A8FEF74A
:104460004BFC10B10DF5117D30BD039B01990493F8
:1044700010AADA6004A8FFF75BF990B99DF93B3008
:10448000002B16DB9DF81630DB0610D503990B9A2E
:104490000C78D57E937E032C43EA05230DD08B61E7
:1044A000E0E7042808BF05200DF5117D30BD05208B
:1044B000D8E7039B069A9A61D4E7547D127D42EABD
:1044C000042243EA0243EAE730B5ADF50F7D0D461D
:1044D000019002A901A80022FEF70EFC044618B1C3
:1044E00020460DF50F7D30BD029B01990EAADA60C2
:1044F00002A8FFF71DF904460028F1D19DF93330D9
:10450000002B09DB002DEBD002A82946FFF764FC45
:1045100020460DF50F7D30BD062420460DF50F7D9C
:1045200030BD00BF2DE9F04FADF5157D03A9019019
:10453000022201A8FEF7E0FB044620B120460DF55B
:10454000157DBDE8F08F039B0199089314AADA60EA
:1045500008A8FFF7EDF8044640B10428EED19DF815
:104560004B1011F0200107D00624E7E7082420466D
:104570000DF5157DBDE8F08F039B049304A8FEF7AD
:104580008FFE054650B1012D0CD1FCF7B9FF022476
:10459000294604A80022FEF70DFFCFE7FCF7B0FF85
:1045A0000724F5E76B1C03D1FCF7AAFF0124EFE712
:1045B000FCF7A6FF294606460398FEF741FF04468E
:1045C0000028E5D1039B202103F14302383303F88F
:1045D000011B9342FBD1039803782E215FFA86FBDF
:1045E000C6F3072AC6F307491022360E5FFA85F88C
:1045F000C5F30727032B80F8381080F8432080F894
:104600004EB080F84FA080F8509080F8516000F1D3
:10461000380180F8528080F853703FD05830202203
:10462000FEF778FA039B0A9A197883F87220C2F38E
:10463000072083F8730003294FF02E0083F85900F8
:1046400025D00122DA7008A8FFF740FA04460028B6
:104650009ED10F9B039A83F816B083F817A083F8B6
:1046600018905E760F9B83F81A80DF761178032905
:1046700003D12D0C290A1D7559750F99102001239E
:10468000C8721046D370FEF791FA044656E7120C32
:10469000110A83F86C2083F86D10D2E725FA02F333
:1046A0001A0A80F84C3080F84D20B7E77F2807D9E8
:1046B000B0F5803F02D2B1F5697F03D0002070478A
:1046C00080B27047F0B40C4D86B241F6DD44102044
:1046D0000022A31A02EB53039F0035F823108E42E9
:1046E00006D094BF1C461A460138F2D1F0BC704780
:1046F0003D446888FAE700BF981901087F2819D956
:10470000B1F5697F01D000207047F0B40B4E102244
:1047100041F6DD4500216B1A01EB53039F0036F88B
:104720002340A04207D08CBF19461D46013AF2D162
:104730001046F0BC70473E447088FAE720A6000897
:10474000B0F5803F1FD2274A274BB0F5805FF0B409
:1047500041F67D513CBF1346612186B204330DE022
:104760008E420ED333F8022CD4B26518A8424FEA19
:10477000122209DB043382B133F8041C1F460029DE
:10478000EED13046F0BC7047082AFAD8DFE802F0D4
:1047900026201D1A1714110E0A0007EB440337F8E0
:1047A0001410DBE7A6F5E356B6B2EAE7503EB6B220
:1047B000E7E70836B6B2E4E71A3EB6B2E1E7303EC4
:1047C000B6B2DEE7203EB6B2DBE7103EB6B2D8E7BF
:1047D000711A01F00103F61AB6B2D2E7401A33F8A3
:1047E0001060CEE770A3000864A5000840F0BF6029
:1047F000024B40F40030D860704700BF00ED00E08D
:10480000C3785BB9037816485A09203203F01F03B6
:10481000012101FA03F340F822307047114A70B4C5
:10482000D2684378867801780D48D243C2F30222D9
:10483000C2F10405EDB20F24AB4044FA02F232405B
:10484000DBB2134344181B0101F01F050122490983
:10485000DBB2AA4084F8003370BC40F821207047D6
:1048600000E100E000ED00E002683749002310B4E9
:1048700022F00102212488420260036043608360C9
:10488000C360036144614DD0304B984235D0304B0A
:10489000984239D02F4B98423DD02F4B984247D069
:1048A0002E4B984248D02E4B98421DD02D4B98420B
:1048B0001ED02D4B984243D02C4B98421DD02C4BF0
:1048C000984221D02B4B984225D02B4B98422FD089
:1048D0002A4B984230D02A4B984205D0294B984217
:1048E00006D05DF8044B7047274A43F8942CF8E74C
:1048F0004FF03D5243F8AC2CF3E74FF4746243F8A9
:10490000202C5DF8044B70474FF4741243F8382C98
:104910005DF8044B70474FF0746243F8502C5DF81B
:10492000044B7047194B5DF8044B3D229A60704769
:10493000174A43F8642CD4E7164A43F87C2CD0E796
:104940003D2243F8082CCCE710600240286002406A
:10495000406002405860024070600240886002403F
:10496000A0600240B8600240106402402864024027
:10497000406402405864024070640240886402400F
:10498000A0640240B864024000003D200060024084
:104990003D000020400F00200B68CA69F0B4CE68CB
:1049A0004D698C690F6A33432B4323434E6A8D6AEA
:1049B0004C6B13433B4333438A6B07680B4E2B43CB
:1049C00023433E4013433343CD6A036042690B6B7C
:1049D0000E694C6889682B4322F007021343436138
:1049E00046608460C160F0BC704700BF3F801CF02F
:1049F000036819B923F001030360704743F0010312
:104A000003607047036819B923F0200303607047FF
:104A100043F02003036070470B060CD54369AAB12D
:104A200043F08003802943610FD0036801F01E0129
:104A3000194301607047802907D0002AF5D1036827
:104A400001F01E0123EA01010160704723F0800399
:104A500080294361F3D1704710B4094B094C0A4ACD
:104A6000A04294BF1846104611F0005F21F0F021DB
:104A700021F0821114BFC16081605DF8044B704762
:104A8000006002400F64024000640240FFF7E4BF90
:104A9000837933B31C4B0279417970B404681E6882
:104AA000E5432E401E605E6802F1804202F59E32B0
:104AB00035405D6015682C43146002689C68D043E3
:104AC00004409C60DC68102900EA0400D86013D020
:104AD00001F1804303F59E3370BC19680A431A60E4
:104AE00070470379016803F1804303F59E331A6828
:104AF00022EA01021A607047996811439960D968E7
:104B00000A43DA6070BC7047003C0140054B1A68EC
:104B10005B69034004D0024214BF012000207047AB
:104B200018467047003C0140014B5861704700BF78
:104B3000003C014008B53C4B984224D03B4B984286
:104B40002BD03B4B984232D03A4B984239D03A4B1B
:104B5000984240D0394B984247D0394B98424ED07A
:104B6000384B984255D0384B984200D008BD0121AF
:104B70004FF4807000F09CF900214FF48070BDE884
:104B8000084000F095B90121084600F091F9002194
:104B90000120BDE8084000F08BB90121022000F09F
:104BA00087F900210220BDE8084000F081B9012109
:104BB000042000F07DF900210420BDE8084000F049
:104BC00077B90121082000F073F900210820BDE821
:104BD000084000F06DB90121102000F069F90021B2
:104BE0001020BDE8084000F063B90121202000F04A
:104BF0005FF900212020BDE8084000F059B90121EB
:104C0000402000F055F900214020BDE8084000F0A8
:104C10004FB90121802000F04BF900218020BDE830
:104C2000084000F045B900BF000002400004024007
:104C300000080240000C0240001002400014024034
:104C400000180240001C02400020024000222DE912
:104C5000F0471346D1F800E001274FF0030C04E0C1
:104C60000133102B02F1020229D007FA03F434EACF
:104C70000E05F5D1D0F800800E790CFA02F5ED435F
:104C800008EA0508C0F80080D0F800A006FA02F98A
:104C9000013E49EA0A09012E0CFA02F8C0F8009018
:104CA0000FD9C568CC7925EA0805C560C568944068
:104CB00001332C43102BC46002F10202D5D1BDE8B0
:104CC000F087D0F808904E7905EA09058560D0F89C
:104CD00008908D79964046EA09068660466826EA7D
:104CE00004044460466805FA03F4A4B23443446003
:104CF000D7E700BF0369194214BF012000207047A5
:104D0000018370474183704743695940416170474F
:104D1000CB0800EB830001F0070110B4036A89009F
:104D20000F248C4023EA04030362036A5DF8044BFA
:104D300002FA01F119430162704700BF014B18608C
:104D4000704700BF20000E42014B1860704700BF43
:104D5000A0000E42074B08491A6842F004021A608C
:104D60001A6842F002021A600B6943F004030B61F7
:104D700030BF70470070004000ED00E0064B00229D
:104D800001281A701A7005D0042802D105221A7061
:104D90007047704718707047703802401F4A936818
:104DA00003F00C03042B10B41BD0082B1CD01C4B9D
:104DB00003601A4A1B499468C4F303140C5DE34072
:104DC00043609468C4F382240C5D23FA04F4846085
:104DD00092685DF8044BC2F342328A5CD340C360F0
:104DE0007047114B0360E4E75468516852686302EE
:104DF000C2F3881201F03F014CBF0B4B084BB3FBD1
:104E0000F1F303FB02F3054A5268C2F30142013297
:104E10005200B3FBF2F30360CBE700BF003802405F
:104E20000024F4000000002000127A0000F4407317
:104E3000B3F5407F09D108498A6820F0704322F415
:104E4000F81223F4407313438B60034B1A6FC0F3C3
:104E50000B0010431867704700380240014B186080
:104E6000704700BF3C0E4742044A136B19B923EA4E
:104E70000000106370471843106370470038024009
:104E8000044A136C19B923EA0000106470471843F0
:104E90001064704700380240044A536C19B923EA81
:104EA0000000506470471843506470470038024057
:104EB000044A136919B923EA0000106170471843C6
:104EC0001061704700380240044A536A19B923EA56
:104ED000000050627047184350627047003802402B
:104EE0004309012B0BD0022B094B0CBF1B6F5B6FCF
:104EF00000F01F0023FA00F000F001007047044B9F
:104F00001B6800F01F0023FA00F000F0010070475A
:104F10000038024082B000230E490193CB685B0643
:104F200014D44FF0FF33CB6000E04AB9CA68019B4C
:104F300001330193019BB3F5803F02F04002F4D1AD
:104F4000044BD868C0F3801002B07047012002B053
:104F5000704700BF0028004038B5104CCA225323C8
:104F6000626263620546FFF7D5FF98B1A36823F03C
:104F70004003A360A3682A681343A360AB6823615E
:104F800023696A6843EA02432361E36823F08003EC
:104F9000E3600120014BFF225A6238BD0028004027
:104FA0000F4982B053230020CA2201904A624B620B
:104FB000CB6823F0A003CB6000E04AB9CA68019B2C
:104FC00001330193019BB3F5003F02F02002F4D1BD
:104FD000034BD868FF22C0F340105A6202B07047FA
:104FE0000028004038B5384B9C68002837D114F0B1
:104FF000400459D1CC700A78092A98BF002008D9FA
:1050000000230A3AD2B20133092ADBB2F9D81B01D4
:10501000D8B24B780243092B4FEA02424FF000000E
:1050200007D90A3BDBB20130092BC0B2F9D8000125
:10503000C0B28978034309294FEA03234FF00000E7
:1050400007D90A39C9B201300929C0B2F9D800011B
:10505000C0B214432343014343EA01040BE014F0BC
:10506000400424D1CC704A7808788B78110241EA48
:10507000004119430C43144DCA2253236A626B62E8
:10508000FFF748FF60B104F07F3424F0FE442C6049
:10509000EB6823F08003EB60AB689B060AD5012028
:1050A000094BFF225A6238BDCC782404A3E7CC78A0
:1050B0002404D8E7FFF774FF034B00304FF0FF02E2
:1050C00018BF01205A6238BD00280040164B1B68EB
:1050D00003F07F3323F0FE431A0CF0B5C3F3062729
:1050E00002F0400EDBB202F03F0681F803E00E70E2
:1050F0004F708B70B8B93D091C09360906EB86065E
:1051000005EB850504EB840402F00F0207F00F079E
:1051100003F00F0302EB460207EB450503EB4404E3
:105120000A704D708C70F0BD0028004038B5002822
:105130003AD14A78D00604D522F010020A32D2B20F
:105140004A70CB78092B4FF0000007D90A3BDBB23D
:105150000130092BC0B2F9D80001C0B20343092ABB
:105160004FEA03434DD900200A3AD2B20130092A4E
:10517000C0B2F9D80001C4B28878224309284FEAA6
:1051800002224FF0000407D90A38C0B201340928BE
:10519000E4B2F9D82401E4B2097843EA41331A436E
:1051A000204342EA000409E04878CB788A780C78FA
:1051B000000240EA0340104340EA4434124DCA2240
:1051C00053236A626B62FFF7A5FE60B124F07F444F
:1051D00024F0C0046C60EB6823F08003EB60AB68E4
:1051E0009B0604D50120084BFF225A6238BDFFF709
:1051F000D7FE054B00304FF0FF0218BF01205A6266
:1052000038BD0024B8E700BF00280040164B5B689B
:1052100023F07F4323F0C003F0B4C3F30725DEB2CD
:10522000C3F3423705F01F021B0C0F704A70CB709E
:105230008E70B8B9120934091809970004EB840478
:1052400005F00F0506F00F063A4400EB800003F06E
:105250000F0306EB440405EB420203EB40038C70A2
:105260004A70CB70F0BC70470028004082B000222A
:10527000054B01920193019B03EB80000190019B80
:10528000196002B0704700BF5028004082B0002271
:10529000054B01920193019B03EB80000190019B60
:1052A000186802B0704700BF5028004008B50121BF
:1052B0004FF40060FFF708FE00214FF40060BDE8E6
:1052C0000840FFF701BE00BFF0B40A4C8268616875
:1052D0004368C76806680569007D21F4FD4121F037
:1052E0007F0113430B433B4333432B43034363602F
:1052F000F0BC7047002C0140014B1860704700BFA4
:10530000A0802542014B1860704700BF002C01406F
:10531000024B186800F00300704700BF002C0140EA
:105320000949036830B48B60CA6885684368C468FB
:10533000006922F4FF622B4322F007021343234348
:105340000343CB6030BC7047002C0140014B18690F
:10535000C0B27047002C0140044B82B003440022CD
:1053600001920193019B186802B07047142C014010
:10537000094A036830B4536243689362C56883681E
:10538000D16A046940692B4321F0F7010B432343A1
:105390000343D36230BC7047002C0140014BD3F86B
:1053A00080007047002C0140014B1860704700BF1F
:1053B0008C852542044AD36B19B923EA0000D063D7
:1053C00070471843D0637047002C0140014B98632D
:1053D000704700BF002C0140034B5B6B034214BFBE
:1053E00001200020704700BF002C0140FFF7F4BFF0
:1053F000014B9863704700BF002C014001F0FC0393
:1054000003F1804303F59C3301F0030110B49A6863
:1054100089000F248C4022EA04029A609A685DF8A1
:10542000044B00FA01F1114399607047234A038845
:1054300090429BB212D002F5806290420ED0B0F141
:10544000804F0BD0A2F58032904207D002F58062E7
:10545000904203D002F58062904203D14A8823F043
:1054600070031343164A90421FD002F580629042A7
:105470001BD070B423F440730E894D680C8802F57C
:105480006C429BB2334390420380C562048506D0D0
:105490000C4B984203D00123838270BC70478B7AF7
:1054A00003860123838270BC704703800B884A689F
:1054B000C262038501238382704700BF0000014060
:1054C0000010004000040140038829B923F00103C3
:1054D0001B041B0C038070479BB243F00103038045
:1054E000704700BF006C7047038A828911EA03008D
:1054F00092B203D0114214BF01200020704700BFB8
:10550000C94389B20182704783899BB21AB923EAE1
:10551000010181817047194381817047FFF7F4BF12
:10552000028AF0B592B20446C8880D4622F4405271
:1055300002438989AB882F896E892282A28922F44D
:10554000B05222F00C023B4312043343120C9BB2C4
:105550001343A381A38A9BB223F440730B4385B00A
:10556000A3826846FFF71AFC1C4B9C4228D003F527
:1055700080639C4224D0029AA389A18913F4004F2E
:105580002B68174D02EB820214BF5B009B0002EBFD
:105590008202B2FBF3F0A5FB00325209642303FB45
:1055A000120310010A040DD41B013233A5FB03239F
:1055B000C3F3431343EA000292B2228105B0F0BD67
:1055C000039AD9E7D9003231A5FB0131C1F3421268
:1055D000024392B2228105B0F0BD00BF001001402D
:1055E0001F85EB51838929B923F400531B041B0C3D
:1055F000838170479BB243F400538381704700BF9F
:105600008088C0F30800704710B401F01F04C1F394
:1056100042110123012903FA04F311D002290CBF1E
:105620001030143032B902685DF8044B22EA0303EB
:105630000360704702685DF8044B134303607047D2
:105640000C30EFE70388194214BF01200020704797
:10565000C1F3421210B4012301F01F04012A03FA1E
:1056600004F317D0022A0CBF028A828A92B2134036
:10567000028892B253B10123090A03FA01F10A42E6
:1056800014BF184600205DF8044B704718465DF8BB
:10569000044B7047828992B21340E9E7704700BF1C
:1056A00010B56C21044601F0EBFE204610BD00BF92
:1056B0002DE9F0413F4C237882B005460E4617464F
:1056C000002B50D1026D12880E2A5BDD3A4A01216F
:1056D00013602170126841F287339A4259D902232C
:1056E000237005F18C0001F009FC05F1A0080346C8
:1056F00001464046019301F0C1FC0122032385F8D5
:10570000112623702B6D1B88042B04DC2A4A0021F0
:1057100004231160237040463A46314601F018FDDB
:105720002378042B29D12B6D1B88042B2EDC224BD4
:105730001A6842F20F739A4201D9052323703A4640
:10574000314605F1A00001F003FD2378052B16D1A9
:1057500005F1A00001F012FD002385F81136237039
:1057600002B0BDE8F081012B19D0022BB9D0032B78
:1057700012D0042B4FF00100D5D0052BE8D002B099
:10578000BDE8F081012002B0BDE8F0810323237061
:10579000D5E72378032BECD105F1A008B2E7026D21
:1057A00012880E2A03DC002218462270E7E7024A1C
:1057B00090E700BFE0080020E808002038B500F5B9
:1057C000AD642046012100F06BFE2046012100F06F
:1057D00051FF2046012101F009F80128054603D0B8
:1057E0002046012100F022FF284638BDF0B5294BA4
:1057F0000025044685B080F8115604F1700700F2C8
:1058000014601D70FFF7CAFA3846294601F040FDC2
:1058100004F174063846012101F03AFD30460121B9
:1058200001F08CFA3046022101F088FA01210420AF
:10583000FFF726FB184EADF80C5004A9A82321F859
:105840000C3D304640F2F3130293ADF80650FFF7DB
:10585000EDFD012211463046FFF760FE01250A23C7
:105860001E2268468DF800208DF801308DF8023038
:105870008DF80350FEF7C4FF29463046FFF724FE9B
:105880002846FFF761FA04F2046000F03BFD05B022
:10589000F0BD00BFF0080020000800402DE9F04FE7
:1058A000AC4AAD4CAD4F8BB000231360994600F568
:1058B000AD63019300F2C453079300F204630593B0
:1058C00000F10803049300F11803054600F1700687
:1058D00000F1880800F18C0A00F1780B06934FF470
:1058E0007A7300213046236001F004FD95F81136EB
:1058F0000121304653B301F021FD95F80836012B04
:105900002AD095F80916012932D095F80C36012BCA
:1059100039D095F80A26012A4CD095F80F36012B7C
:1059200079D095F80D36012B00F081803B78012B62
:1059300000F0978095F81036012B00F09C804046CF
:1059400001F01EFD2368002BFCD1C8E701F0E4FC48
:1059500095F80836012BD4D1EB6A01980293002107
:1059600000F0B2FE95F80916029B01291880CCD1EF
:105970002B6B0198029300F0A7FE029B188095F80C
:105980000C36012BC5D16A6BA96B079800F08EFC11
:10599000002840F0A7806A6B7149B2F9003081FBA2
:1059A0000301DB17C3EB61131BB2138095F80A26C2
:1059B000012AB2D1EB6B05980392029300F000FD2F
:1059C000029BE96B18800B88654AC3EB03135B00ED
:1059D0009BB2A2FB03235B0903EB830303EB83036B
:1059E0009B009BB20B80002B40F084805D4A1278B4
:1059F000002A40F0A480574B1A684EF65F239A4263
:105A00008BD995F81136002B87D1FFF7A3F995F8BC
:105A10000F36012B85D12B6C0293504601F0A2FA70
:105A2000029B186095F80D36012B7FF47FAFAD21F6
:105A30005846029301F0E0F804995846102201F00C
:105A400023F90699584601F0E5F8002860D0AA2805
:105A5000029B7FF46BAF85F844303B78012B7FF4D9
:105A600069AF95F84430DBB995F8103687F80090A7
:105A7000012B7FF464AF504601F05AFA2B6E099067
:105A8000C0F307421A70AB6DC0F307221A70EB6DBA
:105A9000187095F84430002B3DD185F844904EE7BE
:105AA000EB6DAA6D1B7811786A6E002008908DF856
:105AB0002030A86EEB6E8DF8211093F800E000788E
:105AC00008991278002309938DF8250050468DF827
:105AD00026208DF827E001F001FA0999504601F0DF
